:020000040800F2
:10000000F00A002001010008DD0A0008B309000819
:10001000DB0A000819030008592500080000000049
:10002000000000000000000000000000DD1A0008D1
:10003000450700080000000075190008E51F0008CA
:100040001B0100081B0100081B0100081B01000820
:100050001B0100081B010008A10700081B01000884
:10006000DD0700081B010008090800081B01000843
:100070001B0100081B0100081B0100081B010008F0
:100080001B0100081B0100081B0100081B010008E0
:10009000DD2400081B0100081B0100081B010008EB
:1000A0001B0100081B0100081B0100081B010008C0
:1000B0003920000871200008B12000081B01000849
:1000C0001B0100081B0100081B0100081B010008A0
:1000D0001B010008CD2200081D2300081B01000899
:1000E0001B0100081B0100081B010008DFF80CD0F1
:1000F00000F0F2F800480047F1260008F00A00205E
:100100000648804706480047FEE7FEE7FEE7FEE7B1
:10011000FEE7FEE7FEE7FEE7FEE7FEE7E91F000871
:10012000ED00000840EA01039B0703D009E008C97D
:10013000121F08C0042AFAD203E011F8013B00F8AC
:10014000013B521EF9D27047D2B201E000F8012BF8
:10015000491EFBD270470022F6E710B513460A4647
:1001600004461946FFF7F0FF204610BD421E12F864
:10017000013F002BFBD111F8013B02F8013B002BA2
:10018000F9D17047421C10F8011B0029FBD1801ADD
:10019000704710B5002200E0521C835C8C5CA342C7
:1001A00001D1002BF8D1D8B2E1B2401A10BD0346FC
:1001B00011F8012B00F8012B002AF9D118467047DD
:1001C0002DE9F04791460F4680460446002614F874
:1001D000015B2DB100F02CF80068405DC007F6D13E
:1001E0002B2D02D02D2D18D0641E4A4639462046AC
:1001F00000F022F827B13968A14201D1C7F8008088
:1002000071054FF002040BD54042002803DD02F0D7
:10021000A5F90460A007BDE8F08746F48066E4E72E
:100220000028F8DA02F09AF904606FF00040F2E773
:1002300000487047683000082DE9F05F824600787A
:10024000002715468B460AF10104B946302801D033
:100250009DB113E014F8010B0127782803D058282A
:1002600001D045B10AE00DB1102D07D100271025AE
:1002700014F8010B02E0082500E00A250026B0462C
:100280000EE005FB080005FB06F1012701EB104617
:100290001FFA80F8B6F5803F00D3B94614F8010B79
:1002A000294600F02BF80028EBDABBF1000F05D04F
:1002B0000FB1641E00E05446CBF80040B9F1000FC6
:1002C00006D002F04BF902210160C81EBDE8F09F84
:1002D00048EA0640FAE70000064C074D06E0E068F1
:1002E00040F0010394E8070098471034AC42F6D37D
:1002F000FFF700FF28310008483100083A2800D2F3
:10030000303820F02002412A01D3A2F13700884280
:1003100001D34FF0FF307047FEE7000038B50121F0
:10032000084601F07DFB0121042001F079FB4FF428
:100330000060ADF800004820244C8DF803006946A9
:10034000204600F0D9FAA014ADF8000018208DF86E
:10035000030003208DF802006946204600F0CCFA25
:100360000121480601F044FB194D284600F034F8FD
:10037000184800F085F91749002402208C71CC71CF
:100380000C724C728C72CC728C70CC700871042020
:10039000487120200880284600F0A2F80D48012569
:1003A0000C308472C4720573048044808480C480DD
:1003B0000481457300F026F8064840F221311C30D4
:1003C000C0E9001544720472857238BD000801400E
:1003D000006400402C050020094910B588424FF008
:1003E000010101D14C0601E04FF08064204601F08C
:1003F0000BFB2046BDE81040002101F005BB0000CA
:1004000000640040F0B5827A012191402E4A1368C1
:1004100043F0010313602C4B1C331C688C431C609D
:10042000294D067B294C0C35A6B92E688E432E60CB
:100430004688C78846EA0746877A04EBC707C7F8A5
:1004400040660688878846EA0746877A04EBC7072E
:10045000C7F84466067B012E12D12E680E432E602B
:10046000867A056804EBC6064FEA3545C6F840565D
:10047000867A456804EBC6044FEA3545C4F844560D
:10048000114CC57A241D002D256806D00D4325602A
:100490000D4C0589143415B104E08D43F7E7256848
:1004A0008D4325600589012D02D125680D43256006
:1004B000407B012802D1186808431860106820F0BA
:1004C00001001060F0BD00000066004000600040C8
:1004D000002A426901D00A4300E08A434261704722
:1004E00010B50368002223F002030360036843F0A1
:1004F000010303604FF6FF7300E0521C4468E407F9
:1005000001D19A42F9D14268D2073ED08A79012AB4
:1005100002683CD022F080020260CA79012A026897
:1005200038D022F0400202600A7A012A026834D0F0
:1005300022F0200202604A7A012A026830D022F0BA
:10054000100202608A7A012A02682CD022F0080286
:100550000260CA7A012A026828D022F004020260EE
:100560008A78CC78920742EA04620C7942EA044223
:100570004C79098842EA0452491E0A43C261016863
:1005800021F001010160002114E0002010BD42F0C3
:100590008002C1E742F04002C5E742F02002C9E70D
:1005A00042F01002CDE742F00802D1E742F0040227
:1005B000D5E7491C4268D20701D09942F9D1406879
:1005C000C007E2D1012010BD08B54FF4E06000F093
:1005D000B9FA14208DF8000000208DF801008DF884
:1005E000020001208DF80300684600F079FA08BD8A
:1005F00010B500EB0113D3F8B04114F004041472E9
:10060000D3F8B04134D0E408C2F80440D3F8B04184
:1006100004F002045472D3F8B44104F00F0494724D
:10062000D3F8B441240AD474D3F8B841D472D3F8BF
:10063000B841240A1473D3F8B841240C5473D3F886
:10064000B841240E9473D3F8BC41D473D3F8BC41A1
:10065000240A1474D3F8BC41240C5474D3F8BC316C
:100660001B0E937439B1016941F02001016110BD85
:10067000640D1460CAE7C16841F02001C16010BD7B
:1006800000218171C171017241728172C1728170E8
:10069000C170032101710221417101210180704764
:1006A00030B50246002093685B0108D490680001D1
:1006B00001D5012003E09068C00037D5022002EB8D
:1006C0000012D2F8803103F00103C2F880310B7AB6
:1006D00073B3D2F880414D681C434B7A43EAC5039B
:1006E0001C43C2F880418B7A03F00F038B72D2F85F
:1006F000843123F00F03C2F88431D2F884318C7A2C
:100700002343C2F88431CB7ACC6843EA0423C2F88D
:100710008831CB7B096943EA0121C2F88C11D2F8F8
:10072000801141F00101C2F8801130BD042030BDBC
:10073000D2F880314C7A23430C8843EA4453C2F800
:100740008031D0E77047000010B5074C6060074863
:1007500007490068B0FBF1F001F02CFC00B1FEE7A6
:1007600060680028FCD110BD300000201C00002073
:10077000A086010010B5084C606008484FF47A71FB
:100780000068B0FBF1F001F015FC00B1FEE7606815
:100790000028FCD110BD0000300000201C0000200B
:1007A00070B5012000F04CF8002813D00A4D6C8879
:1007B0002888844201D9201A03E04FF6FF71081AF5
:1007C000204480B200F06EF92C80BDE8704001201A
:1007D00000F030B870BD00003800002010B50420D3
:1007E00000F02EF8002807D004A001F057FDBDE866
:1007F0001040042000F01EB810BD000054455354B2
:1008000020320D0A0000000010B5102000F018F88A
:10081000002807D004A001F041FDBDE810401020E1
:1008200000F008B810BD00005445535420340D0AA0
:1008300000000000014908607047000014040140F6
:10084000064A014600201268044B0A4014331B6814
:100850000B4202D0002A00D0012070470004014062
:1008600030B51A498379026853B30B6893430B6020
:100870000A1D13680468A343136002790A441368CD
:10088000046823431360114A083213680468A343C1
:100890001360131D1C680568AC431C604479102C60
:1008A00005D021440A68006802430A6030BD11681F
:1008B000046821431160196800680143196030BD64
:1008C0000079084401689143016030BD0004014093
:1008D00010B58A0721F003040649130F21440F22A3
:1008E0008C689A4094438C608A68984002438A607E
:1008F00010BD000000000140F0B5CA78002502F0EC
:100900000F03D20601D58A7813430A784FF00F0EF1
:1009100012F0FF0F4FF001021CD004680F8802FA9A
:1009200005F63740B74211D14FEA850C0EFA0CF7A5
:1009300024EA070703FA0CF43C43CF78282F02D0AF
:10094000482F02D002E0466100E006616D1C082DD0
:10095000E4D304600C88FF2C1ED944685FF00006C5
:1009600006F1080702FA07F50F882F40AF420FD1B2
:100970004FEA860C0EFA0CF7BC4303FA0CF73C4323
:10098000CF78282F00D14561CF78482F00D105615D
:10099000761C082EE4D34460F0BD02460020926825
:1009A0000A4200D0012070470AB1016170474161DD
:1009B0007047FEE70029018802D041F0010101E003
:1009C00021F001010180704770B50446808886B02F
:1009D0000D4620F03F06684601F02EF827490298A0
:1009E000B0FBF1F189B20E43A680228822F0010209
:1009F0002280234B2A689A421CD85200B0FBF2F0A6
:100A000080B2042800D20420491C2184A0832088BD
:100A100040F00100208021884FF6F5300140A88881
:100A20006A89104308432080A889298908432081C6
:100A300006B070BDEB88A3F53F46FF3E0BD002EB3E
:100A4000C20303EB0212B0FBF2F080B240F480402C
:100A5000020506D007E002EB4202B0FBF2F080B2E2
:100A6000F6E740F001004FF4967251434FF47A726A
:100A7000B1FBF2F140F40040C6E7000040420F0035
:100A8000A0860100064910B50448496830F81140B5
:100A90000348001D01F0D0FD204610BD5C0500207C
:100AA00074000020044A0349126821F81200024829
:100AB00001F0C2BD5C050020740000200448D0E9AC
:100AC0000010814201D101207047002070470000D2
:100AD0007400002080B2FFF74DBEFEE770470000B3
:100AE00070B50F23C47801780122F4B1144C246846
:100AF000457804F4E064C4F5E064240AC4F1040613
:100B0000E3408478B5401C402C4301F1E0212301EF
:100B100081F80034007800F01F018A40400980000D
:100B200000F1E020C0F8002170BD01F01F008240FC
:100B30004809800000F1E020C0F8802170BD00006D
:100B40000CED00E0024908430249086070470000CC
:100B50000000FA050CED00E070B5324D4FF4804115
:100B60002846FFF71AFF304C30B302212F48FFF719
:100B700014FF18B369142846FFF70FFF28B34FF48A
:100B800000412846FFF709FF08B302212848FFF774
:100B900004FFF0B1206B002816D0D4E90A1291426C
:100BA00012D1012817D002281AD003281DD00428FA
:100BB00020D0052823D030E0012000E0022020636F
:100BC000A06A401CA062E06270BD0320F7E7042029
:100BD000F5E70520F3E717A001F060FB04201AE019
:100BE00016A001F05BFB062015E016A001F056FBF5
:100BF000002010E015A001F051FB02200BE0154889
:100C0000814204D314A001F049FB0A2003E016A09E
:100C100001F044FB082000F073FB0020A062E062BA
:100C2000206370BD00100140380000200008014022
:100C3000000C01404C4546540D0A000052494748FB
:100C4000540D0A0055500D0A00000000444F574E45
:100C50000D0A0000A08601004C4F4E472043454E30
:100C60005445520D0A00000043454E5445520D0AAA
:100C70000000000010B508A001F010FB14A001F066
:100C80000DFB05A001F00AFB00F06EF800F0E2F8A1
:100C9000BDE8104000F0C6B82323232323232323D9
:100CA0002323232323232323232323232323232314
:100CB0002323232323232323232323232323232304
:100CC000232323232323232323232323230A0D0046
:100CD0002320202020202020202020202020202011
:100CE0002020205049353030384B2052444B2020B2
:100CF00020202020202020202020202020202020F4
:100D0000230A0D0070B5154C15492089B0FBF1F28E
:100D100001FB120000281FD16089124D401C608128
:100D2000C0074FF400760BD0002220212846FFF7A1
:100D30003BFE31462846BDE870400022FFF734BE36
:100D4000012220212846FFF72FFE012231462846A6
:100D5000FFF72AFE0020608170BD000038000020EF
:100D6000A0860100000C014010B50B4801F096FA76
:100D70000AA001F093FA0FA001F090FA17A001F079
:100D80008DFA1E4801F08AFA1DA001F087FABDE82D
:100D90001040014801F082BA6C3000082248656CAE
:100DA0006C6F205049353030384B2052444B220D67
:100DB0000A0000002272656722737022722273702B
:100DC0005B616464725D73705B646174615D7370B8
:100DD0005B636E745D5C6E0D0A00000022726567D5
:100DE00022737022772273705B616464725D73702A
:100DF0005B646174615D5C6E0D0A0000D0300008B8
:100E00002263616E2273702274782273705B646156
:100E100074615D73705B6C6F6F70636E745D5C6E3C
:100E20000D0A000070B50A4C002220212046FFF771
:100E3000BBFD40F29E252846FFF74CFE01222021F3
:100E40002046FFF7B1FD2846BDE87040FFF742BEDF
:100E50000008014010B532211848FFF77CF9174807
:100E600032213230FFF777F9144832216430FFF72E
:100E700072F9124832219630FFF76DF90F484FF49E
:100E8000C8742146C830FFF766F921460C48FFF7C1
:100E900062F914210B48FFF75EF90A481421143057
:100EA000FFF759F9074832212830FFF754F9054870
:100EB0003221BDE810405A30FFF74DB9B80000208C
:100EC00010030020A0040020F0B599B0002475A103
:100ED0007548FFF75EF9744E643606F1140528363E
:100EE00068B172A17048FFF754F9002873D070A060
:100EF00001F0D4F972A001F0D1F919B0F0BD6A483F
:100F000074A16430FFF745F9002844D0664872A107
:100F10006430FFF73EF90028ECD170A12846FFF7B6
:100F200038F90028E6D16EA001F0B8F971A1684641
:100F3000FFF73DF96846FFF725F905463046FFF70C
:100F400021F905445848A0300746FFF71BF928440B
:100F5000401CC5B231466846FFF708F967A16846EC
:100F6000FFF704F939466846FFF700F92946684655
:100F700000F086FB01466846FFF7F8F860A1684676
:100F8000FFF7F4F85FA001F089F9694660A001F06D
:100F900085F96D464CE064A12846FFF7FAF8002871
:100FA000A8D162A13046FFF7F4F8A8B160A130469D
:100FB000FFF7EFF890B160A13046FFF7EAF878B19B
:100FC0005FA13046FFF7E5F860B15FA13046FFF75B
:100FD000E0F848B10CE037E05DA106E060A104E074
:100FE00063A102E066A100E069A16846FFF7DFF8AF
:100FF0006846FFF7C7F80146684600F041FB014626
:101000006846FFF7B3F83EA16846FFF7AFF800E087
:10101000641C6846FFF7B6F8A042F9DC694661A097
:1010200001F048F966E7295D5FA001F037F9641C1B
:101030006846FFF7A7F8A042F5DC25A001F02EF9DD
:101040005BA001F02BF9E9E717485DA16430FFF7D9
:10105000A0F80028E6D1304600F05AFC06460146CA
:1010600058A001F01BF9284600F052FC594DC1B2BE
:1010700059A0297001F012F95D4928785D4DC872B8
:101080000CE0324621465CA001F008F95849284698
:10109000FFF706FBC820FFF76DFB641CB442F0DBD2
:1010A00028E70000740000001C01002063616E004E
:1010B000756E7661696C6420636D64200D0A0000B2
:1010C000656E642072656D6F746520776F726C64F5
:1010D000200D0A00636F6E00726567007377000071
:1010E00068656C6C6F2072656720776F726C642026
:1010F0000D0A0000742072656720737720000000DD
:101100000A000000206465627567200D0A00000077
:1011100073656E6420756172742064617461203D32
:101120002025730D0A00000072656D0075700000C7
:10113000646F776E000000006C656674000000004C
:10114000726967687400000063656E746572000000
:101150007420636F6E2072656D2075700000000052
:101160007420636F6E2072656D20646F776E00006F
:101170007420636F6E2072656D206C65667400006C
:101180007420636F6E2072656D20726967687400E9
:101190007420636F6E2072656D2063656E74657276
:1011A00000000000257300003078253032782000E0
:1011B00020646562756720656E64200D0A0000007A
:1011C000747800006C6F6F70636E74203D2025642E
:1011D000200D0A0070000020746573742063616E36
:1011E000207478205B30782532785D200D0A00006D
:1011F00048050020006400406C6F6F70636E7420BF
:101200003D205B25642F25645D200D0A0000000051
:1012100070B51D4D0024286AE0B11C491CA001F0E6
:101220003DF81A4E643608E004EB840006EB8002B9
:1012300021461BA001F032F8641CE8698442F3DB0C
:101240000020E861FFF740FEFFF78EFDBDE870402B
:1012500000F05CBA686A002815D00C4915A032313C
:1012600001F028F8094916A0323101F017F819A049
:1012700001F020F81BA001F011F8FFF775FDBDE8A3
:10128000704000F00BBB70BD380000201C01002036
:101290000D0A3E3E20636D64203A2573200D0A003E
:1012A0003E3E20617267202564203A202573200D80
:1012B0000A0000003E3E202573200D0A2000000099
:1012C0003E3E5B55415254325D202573200D0A206D
:1012D00000000000756E7661696C6420636D6420A7
:1012E0000D0A00003E3E5B55415254325D20756E42
:1012F0007661696C6420636D64200D0A0000000053
:1013000010B500249AB00E2827D2DFE800F00709B4
:101310000E10121416181A1C1E20222420A100E000
:1013200023A16846FEF743FF1AE026A1F9E729A1A9
:10133000F7E72DA1F5E730A1F3E734A1F1E737A1F5
:10134000EFE73BA1EDE73FA1EBE744A1E9E747A1C8
:10135000E7E74BA1E5E74EA1E3E752A000F09EFFCF
:101360006846FEF70FFF0146684600F089F901461E
:101370006846FEF7FBFE4FA16846FEF7F7FE00E069
:10138000641C6846FEF7FEFEA042F9DC69464AA0EE
:1013900000F084FF69464DA000F08CFF1AB010BD2C
:1013A0007420636F6E2072656D2075700000000000
:1013B0007420636F6E2072656D2075706C6F6E6740
:1013C000000000007420636F6E2072656D20646FF2
:1013D000776E00007420636F6E2072656D20646FFD
:1013E000776E6C6F6E6700007420636F6E2072659D
:1013F0006D206C65667400007420636F6E207265EA
:101400006D206C6566746C6F6E6700007420636F8E
:101410006E2072656D207269676874007420636F56
:101420006E2072656D2072696768746C6F6E6700FC
:101430007420636F6E2072656D2063656E746572D3
:10144000000000007420636F6E2072656D2063657C
:101450006E7465726C6F6E67000000007420636FBD
:101460006E2072656D206D656E7500007420636F6F
:101470006E2072656D206D656E756C6F6E67000015
:101480007420636F6E2072656D206E617669000056
:101490007420636F6E2072656D206E6176696C6F6B
:1014A0006E670000756E7661696C6420636D642000
:1014B0000D0A00000A00000073656E6420756172F9
:1014C000742064617461203D202573002573000041
:1014D000F0B5CDB00E46074664216846FEF73BFEE8
:1014E0000024642119A8FEF736FE642132A8FEF715
:1014F00032FE38A04BA900684B9019A8FEF757FEA2
:101500004BA932A8FEF753FE10220DF166013846B2
:1015100001F09AF810220DF1CA01304601F094F85A
:101520002DA16846FEF743FE6846FEF72BFE0546F2
:1015300019A8FEF727FE054432A8FEF723FE28442B
:10154000401CC5B219A96846FEF710FE24A16846E2
:10155000FEF70CFE32A96846FEF708FE29466846EB
:1015600000F08EF801466846FEF700FE1DA16846B1
:10157000FEF7FCFD1CA000F091FE39461DA000F016
:101580008DFE314621A000F089FE19A925A000F0AA
:1015900085FE32A928A000F081FE69462BA000F04C
:1015A0007DFE6D4604E0295D2EA000F077FE641CF0
:1015B0006846FEF7E7FDA042F5DC23A000F06EFED2
:1015C0002AA000F06BFE69462CA000F073FE4DB01F
:1015D000F0BD0000307800007420726567207377DA
:1015E000200000000A000000206465627567200D7D
:1015F0000A000000207374725F616464203D205B08
:10160000307825785D200D0A000000002073747288
:101610005F64617461203D205B307825785D200D2A
:101620000A000000207374725F616464203D205BD7
:1016300025735D200D0A0000207374725F6461746D
:1016400061203D205B25735D200D0A0073656E648B
:1016500020756172742064617461203D2025730DD2
:101660000A0000003078253032782000206465625E
:10167000756720656E64200D0A0000002573000068
:101680002DE9F0419AB00F46804664216846FEF786
:1016900062FD0FA06E46006819900EA0002500782C
:1016A00019A9C4B28DF80040701CFEF780FD03E05C
:1016B00018F805006D1C0444BD42F9D31022F11C3A
:1016C000204600F0C1FF68461AB0BDE8F081000076
:1016D000307800002000000010B532210948FEF7E4
:1016E0003AFD084832216430FEF735FD0548642193
:1016F000C830FEF730FD044800218166C166A0F8BD
:10170000701010BDB800002038040020054910B545
:101710000020086204A000F0C1FDBDE81040FFF702
:10172000DBBF0000380000203E3E200010B5064C14
:101730002021204600F036FE0028F9D0204600F097
:10174000C5FEC0B210BD0000003801402DE9F041D7
:10175000394EFFF7EBFF394CC1B2DFF8E480E068A7
:101760003154404600F0B6FEE268711C0027B35CBD
:1017700001F1C70000F548750D2B06D07F2B25D051
:10178000082B23D0202B36D049E0636963B1EA549B
:10179000EE1803EB830316F8016C00EB8300921B39
:1017A00014383144521E02E0234831466430FEF7BB
:1017B000B9FC6069217B29546761E760E0610D2114
:1017C000404600F087FE0020BDE8F081002A2DDDB4
:1017D0001C481B21104400F8017C1BA000F05EFD9A
:1017E000184B1BA21B211BA000F058FD1548FEF74B
:1017F000C9FCE0601AE06369D7B2EF54C3B1EA18DC
:1018000003EB830312F8015C00EB83007A1B29448D
:101810001438521EFEF786FC6069401C6061E06867
:101820003146401CE0600748FEF7C1FC0120CBE7D1
:10183000014831466430EDE7B80000203800002050
:1018400000380140C804002025635B3141000000DE
:101850003E3E00000A0D25635B324B257320257345
:101860000000000010B532210948FEF774FC08485A
:1018700032216430FEF76FFC64210648FEF76BFCF2
:101880000548002140F87C1F4160018110BD000027
:10189000EA0000201003002038040020054910B59C
:1018A00000204862044800F005FDBDE81040FFF745
:1018B000D9BF0000380000202817000810B5064CDA
:1018C0002021204600F06EFD0028F9D0204600F0CF
:1018D000FDFDC0B210BD00000044004010B50A4C30
:1018E000FFF7ECFFC1B209480A290269A154026955
:1018F00003D0521C0261012010BD03482146643010
:10190000FEF710FC002010BDEA0000203800002087
:1019100010220021FEF754BC70B5FFF7CFF8144C2D
:10192000A8B9FFF7AFF8054600F033FE38B10A203A
:1019300000F0B0FC00F036FEA060012005E0284673
:1019400000F01FFE18B1A069401CA06170BD2069A5
:10195000012802D060690128F8D1A06800F0E6FEF5
:101960000020E06020616061A061E061A06070BD66
:10197000740000207047000070B50C4C05460A2822
:1019800009D10D21204600F0A5FD4021204600F0A0
:1019900009FD0028F9D02946204600F09BFD402192
:1019A000204600F0FFFC0028F9D070BD003801404F
:1019B00070B50D4D04460A280AD10D21284600F0C5
:1019C00089FD0A4E4021304600F0ECFC0028F9D099
:1019D00021462C46284600F07DFD4021204600F09F
:1019E000E1FC0028F9D070BD0044004000380140FF
:1019F000044A0029D16901D0014300E08143D1614B
:101A00007047000000100240044A0029116901D00B
:101A1000014300E081431161704700000010024063
:101A2000044A0029916901D0014300E0814391619A
:101A3000704700000010024030B5224A5168224B26
:101A400011F00C0103D0042903D0082903D003604E
:101A500016E01E4913E05168536801F470114FF00D
:101A6000020413F4803F04EB914104D053689B03BC
:101A700003D5174B02E0174B00E0144B59430160AC
:101A800051680F2303EA1111134B5C5C0168E140BC
:101A900041605468072505EA14241C5D21FA04F40A
:101AA0008460546805EAD4241B5DD940C160526843
:101AB000032303EA9232084B1B1F9A5CB1FBF2F13D
:101AC000016130BD0010024000127A00001BB70017
:101AD000808D5B0000093D000A0000207047000077
:101AE0000CB50021264801910091026842F4803231
:101AF00002604FF4A063026802F400320092019A7F
:101B0000521C0192009A12B9019A9A42F3D10268CA
:101B1000920333D5012100911A490A6842F010025C
:101B20000A600A6822F003020A600A6842F00202B0
:101B30000A604168416041684160416841F48061E8
:101B40004160416821F47C114160416841F4E81131
:101B50004160016841F08071016001688901FCD534
:101B6000416821F003014160416841F00201416098
:101B70004168C1F381010229FAD10CBD00910CBD6D
:101B8000001002400020024038B54FF46040ADF82C
:101B9000000003248DF8024048258DF80350694663
:101BA0000948FEF7A9FE0220ADF800008DF80240BA
:101BB0008DF8035069460548FEF79EFE69460448C5
:101BC000FEF79AFE38BD00000010014000080140F9
:101BD000000C014010B5FEF7F7FCFEF79FFB012259
:101BE000BDE8104002210148FEF772BC00640040CD
:101BF0002DE9FF4701210846FFF712FF01210420CC
:101C0000FFF7F6FE01213D20FFF70AFF10258DF8B2
:101C1000035003278DF802704FF48850DFF8D490FA
:101C2000ADF8000069464846FEF766FE8DF8027082
:101C300004248DF8034040F60200ADF80000694628
:101C40004846FEF759FE8DF803404FF46040ADF86A
:101C5000000069462848FEF74FFE8DF80340022633
:101C6000ADF8006069464846FEF746FEDFF88C8016
:101C70008DF80340ADF8006069464046FEF73CFE33
:101C80008DF803504FF44870ADF8000069464046A7
:101C9000FEF732FE0126ADF8006069464046FEF7C9
:101CA0002BFEF020ADF800008DF802708DF8034097
:101CB00069464846FEF720FE04210020FEF708FE94
:101CC00000248DF808408DF8095001958DF80A60C0
:101CD00001A8FEF7C5FD0A208DF80C008DF80D4017
:101CE0008DF80E608DF80F6003A8FEF7F9FEBDE8D1
:101CF000FF8700000008014000100140000C014077
:101D000010B586B001210820FFF78AFE01214FF4AB
:101D1000C000FFF76DFEC020ADF8100003208DF865
:101D200012001C20194C8DF8130004A92046FEF760
:101D3000E3FD4FF44060ADF8100004A92046FEF723
:101D4000DBFD0020ADF80400ADF808002015ADF86B
:101D50000A000001ADF80C004BF6FF710C480D4C69
:101D6000ADF80610009001212046FEF723FE6946DB
:101D70002046FEF729FE084C01212046FEF71AFEF8
:101D800069462046FEF720FE06B010BD000C01405B
:101D9000801A060000540040005800407FB501241E
:101DA000ADF80C4003208DF80E0048208DF80F0090
:101DB00003A91048FEF7A0FD00210846FEF788FDA4
:101DC00000258DF804500C208DF8050000948DF846
:101DD00006406846FEF744FD06208DF808008DF8A1
:101DE00009508DF80A408DF80B4002A8FEF778FEE6
:101DF0007FBD0000000801401FB501210420FFF74E
:101E0000F7FD1E208DF80C0000248DF80D400120F8
:101E10008DF80E008DF80F0003A8FEF761FE4FF459
:101E2000B370ADF804000220ADF80000ADF8064034
:101E3000ADF80240074C6946204600F0D3F9012175
:101E4000204600F0ACF901221146204600F0BFF90F
:101E50001FBD00000008004030B587B04FF4E060BF
:101E6000FEF770FE01210520FFF7DAFD012188034E
:101E7000FFF7D6FD18208DF813004FF40070ADF871
:101E8000100003201E4C8DF8120004A92046FEF716
:101E900033FD04208DF813000002ADF8100004A9F2
:101EA0002046FEF729FD00244FF4E1300090ADF804
:101EB00008400C20134DADF80440ADF80A00ADF811
:101EC0000640ADF80C406946284600F0A9FA012109
:101ED000284600F05DFA25208DF8140001218DF8C8
:101EE00015108DF816408DF8171005A8FEF7F8FDAF
:101EF000012240F22551284600F07AFA07B030BDA1
:101F0000000801400038014030B587B04FF4E06070
:101F1000FEF718FE01210520FFF782FD012148048C
:101F2000FFF766FD18208DF813000424ADF810406B
:101F300003201E4D8DF8120004A92846FEF7DCFC94
:101F40008DF813400820ADF8100004A92846FEF7CC
:101F5000D3FC00244FF4E1300090ADF808400C2091
:101F6000134DADF80440ADF80A00ADF80640ADF8E9
:101F70000C406946284600F053FA0121284600F03B
:101F800007FA26208DF8140001218DF815108DF820
:101F900016408DF8171005A8FEF7A2FD012240F2A9
:101FA0002551284600F024FA07B030BD0008014052
:101FB00000440040B0F1807F01D30120704720F041
:101FC0007F414FF0E020491E4161054AF02182F82F
:101FD000141D00218161072101610020704700006C
:101FE0000FE000E000F04CB90F4810B5016841F077
:101FF0000101016041680D4A1140416001680C4ACD
:1020000011400160016821F480210160416821F4E0
:10201000FE0141604FF41F018160FFF761FD05493A
:102020004FF00060086010BD001002400000FFF893
:10203000FFFFF6FE08ED00E010B502214C07204638
:1020400000F0B9F801280FD1204600F0B2F8074996
:1020500088804FF6FF71204600F0C1F82046BDE8A9
:102060001040022100F098B810BD000000000020D0
:1020700010B50C4C0121204600F09DF8012810D12C
:102080000121204600F088F80748012101704188AD
:102090004A1C42801E2904D304490968002900D142
:1020A000418010BD00040040000000206C000020B2
:1020B0002DE9F047294C0121204600F07CF8012849
:1020C00045D10121204600F067F825484FF47A7287
:1020D0000189491C01814188491C41808188B1FBEB
:1020E000F2F302FB131111B9C188491CC180FEF73C
:1020F00009FE1C480068002829D01B481B4E0024FC
:10210000016832681A4F1B4D914203D03C602C602D
:1021100031601EE02A6842F6E0639A4219D3DFF884
:1021200058904FF001080A2905D3C9F800802C60A7
:102130003C6004600AE0824610A000F0AFF8C7F8E7
:102140000080C9F800402C60CAF800403460BDE847
:10215000F0872868401C2860F9E70000000800406C
:10216000380000207C0000208C000020900000201F
:1021700088000020800000208400002072656672C4
:1021800065736820675F7265706561745F636E7404
:102190002025640D0A000000C94301827047002910
:1021A000018802D041F0010101E021F0010101802C
:1021B0007047808E704702460020138A92890B4236
:1021C00002EA010202D0002A00D001207047002A52
:1021D000828901D00A4300E08A438281704781846A
:1021E0007047000030B502881B4B1C4C98420DD044
:1021F000A0420BD0B0F1804F08D0194DA84205D0B5
:10220000184DA84202D0184DA84203D122F0700503
:102210004A882A43154DA84206D0154DA84203D03E
:1022200022F44075CA882A4302808A8882850A88F7
:10223000028598420AD0A04208D00E4A904205D0AA
:102240000D4A904202D00D4A904201D1097A01868E
:102250000121818230BD0000002C0140003401408A
:102260000004004000080040000C00400010004046
:10227000001400400040014000440140004801407B
:1022800003484168002902D04168491E41607047F7
:102290003000002080B2FEF757BA00000FB40448A7
:1022A00010B503AA029900F023FE10BC5DF814FBE0
:1022B000791900080FB4044810B503AA029900F078
:1022C00017FE10BC5DF814FBB119000870B5104D75
:1022D00040F225542146284600F06BF8002816D01D
:1022E000FFF734FA68B90B4800218166C166A0F88F
:1022F00070103221A0F56070FDF72DFF0649012016
:10230000086221462846BDE8704000F03BB870BD29
:1023100000380140380400203800002070B5114D0D
:1023200040F225542146284600F043F8002818D0F2
:10233000FFF7D4FA78B90C490CA0FFF7AFFF3221B0
:102340000948FDF708FF084832216438FDF703FF0C
:102350000B490020086121462846BDE8704000F086
:1023600011B870BD004400404E01002075617274C8
:102370003220636D64203A202573200D0A2000006E
:10238000380000200A0A01219140C94301807047AA
:102390000029818902D041F4005101E021F400516B
:1023A000818170470246002012880A4200D0012035
:1023B000704730B501F01F0201240025C1F342131C
:1023C00004FA02F2012B0FD0022B0FD0838A4FEABE
:1023D00011210088134204FA01F400EA040001D03C
:1023E00000B10125284630BD8389F0E7038AEEE776
:1023F00010B5C1F3421301F01F040121A140012BCC
:1024000007D0022B07D01430002A026805D00A43F7
:1024100004E00C30F8E71030F6E78A43026010BDA4
:1024200030B50446008A85B00D464CF6FF71084071
:10243000E98801432182A1894EF6F3100140A88862
:102440002A8910436A890A431043A081A08A4FF663
:10245000FF410840A9890143A1826846FFF7ECFAD1
:102460001948844201D1039800E00298A189090427
:1024700000EBC00101EB0010296801D5490000E024
:102480008900B0FBF1F06422B0FBF2F109010B0905
:102490006FF018056B4300EB8300A3891D044FF018
:1024A000320306D503EBC000B0FBF2F000F00700EA
:1024B00005E003EB0010B0FBF2F000F00F00084362
:1024C000208105B030BD0000003801408088C0F395
:1024D00008007047C1F308018180704710B50E4AAB
:1024E00000210E48FEF784F80DA0FFF7D7FE0A4C36
:1024F0002068A0F5407121390CD1207A002809D13B
:10250000A07A012806D1E17A0BA0FFF7C7FE114996
:10251000E07A087010BD0000A400002000640040B4
:1025200043414E315F5258305F49525148616E64A9
:102530006C65720D0A00000052784D657373616717
:10254000652E446174615B305D203D3078253278C2
:10255000200D0A0070000020FEE7000000487047D0
:10256000A000002002E008C8121F08C1002AFAD10A
:1025700070477047002001E001C1121F002AFBD103
:102580007047A0F25240272801D201207047002056
:102590007047A0F23350272801D201207047002055
:1025A000704700002DE9F047002426464FF4967945
:1025B00025464FF6FF774FF001084846FFF76AFEC1
:1025C000FEF77CFA012807D0FEF75CFAA0F15E0165
:1025D000272906D2284608E031460DA0FFF75EFE07
:1025E00014E0CF38272811D24046C6F11F01884099
:1025F0000443761C202EE0D30D48844202D00D48BF
:10260000844200D1CE242046BDE8F0873846FBE75F
:102610005B4552524F525D20517565756520656D61
:102620007074792C20696E6465783A2025640A00FC
:10263000AD52BE40CF3077080168491C0160C829FF
:1026400001D100210160704730B50C4600210D46D4
:1026500018B930202070657012E0B0FBF2F302FB75
:102660001303092B01DD573300E03033B0FBF2F0E8
:102670006354491C0028F0D16554204600F047F807
:10268000204630BDF0B5002785B01E464FF0200C27
:102690003C46002904DA4942002801DA40422D274D
:1026A000002A02DA52424FF0300C142A1EDC6D462A
:1026B000B0FBF1F301FB1303DBB20A2B01D3573359
:1026C00000E03033B0FBF1F02B55641C0028EFD153
:1026D0002FB12F5502E000BF05F804C0641C9442DE
:1026E000FADB641E285DB047002CFAD105B0F0BDBE
:1026F00000F0D2FBC820FEF73DF8FEF7BBFA00BFA2
:10270000FEF786FDFFF708F9FEF726FAF8E770B541
:10271000002506464C1E05E03119701900F0B6FB85
:10272000641E6D1CA542F7DB70BD00002DE9F04171
:10273000DE4B4FF4FF64C11A6500DD4A98427DD03C
:1027400063DCDC4FDC4EA0EB070341F2E871B842DA
:1027500075D02DDCDFF864C3D94FA3EB0C026345C1
:102760006ED014DCDFF85CC3A2EB0C03624568D0CA
:1027700007DC591866D0A14278D0A94277D1D2A1FE
:1027800056E1B24274D0BA42F8D1D4A150E1D94C4A
:102790001A1BA3426DD005DCBA426BD012F57F7FC5
:1027A000ECD159E1591874D0A942E7D1D2A13FE147
:1027B000D64D431BA8426DD013DCB3426BD00ADC6C
:1027C00013F57F5F68D043F2C871591871D0A142E8
:1027D000D4D1CFA12CE159186CD0A142CED1D0A137
:1027E00026E1D54BC11A98427ED007DC11F57F6FE8
:1027F0007BD001F53061F431C0D13BE1CE2875D0FA
:10280000CE49C842BAD1CEA112E1D34E8B1BB14200
:10281000F5D050DC48F67076A1EB0603B1426FD0DC
:1028200029DC44F6B073A1EB030299426AD012DCB2
:10283000A1F5FB61B1F5005177D004E020E107E19B
:10284000FEE0F4E00EE1A14270D001F61801B1F50E
:10285000005F93D118E102F61802B2F500526ED073
:1028600002F61802B2F5005F88D10BE1E4E019E14D
:10287000E8E0DFE0F8E0B94E991BB34274D00CDC1D
:10288000A3F5FB63B3F500536FD0AB4288D1B4A17D
:10289000CEE0DBE0E4E0D7E0D0E0A14278D0A9428E
:1028A00096D1106968B3B3A1B6A0FFF7F7FC052075
:1028B000B9E0CFE0DCE0B4495C1A8B429FD022DC67
:1028C00049F66074A3EB0401A34270D00FDCB3F5AA
:1028D000FF4F76D0A3F5BF73B3F5004330D0A3F517
:1028E000A063FA3B88D184E0C0E0B7E07BE0A74A70
:1028F000891827D0A1F6D251B1F5005FA9D148E0DF
:10290000C6E00CE0C6E042F6D253E11A4FF4FF52A3
:102910009C4233D00BDCAC4212D0944299D195A1A9
:1029200098A0FFF7BBFC04207DE0A5E0B4E001F631
:102930001261B1F5005111D091428AD108E09DE0B9
:1029400093A175E096A18FA0FFF7A8FC00206AE094
:1029500097A18CA0FFF7A2FC022064E098A189A0B7
:10296000FFF79CFC06205EE050E08FE0FFF796FC4E
:10297000092058E0FFF792FC082054E095A181A0BF
:10298000FFF78CFC99A0FFF789FC9E4988170AE0A5
:1029900020E09DA17BA0FFF781FCA1A0FFF77EFCBA
:1029A000A5494FF0EE30BDE8F041FEF791BD10694A
:1029B0000028C7D07AA173A0FFF770FC012032E095
:1029C000FFE710690028C3D079A16EA0FFF766FC6D
:1029D000032028E010690028C0D079A169A0FFF782
:1029E0005DFC07201FE0106994A1002865A0C1D0FC
:1029F000BCE7106996A1002862A003D0FFF74EFC47
:102A00000D2010E0FFF74AFC0C200CE0106928B103
:102A10008FA15CA0FFF742FC0B2004E08EA159A01F
:102A2000FFF73CFC0A20BDE8F041FEF769BC8CA131
:102A300054A033E08EA1FBE791A1F9E794A1F7E759
:102A400097A1F5E79AA1F3E79DA1F1E7A0A1EFE730
:102A5000A3A1EDE7A6A1EBE7ABA1E9E7B0A1E7E70A
:102A6000B4A1E5E7B8A1E3E7BDA1E1E7C2A1DFE7D3
:102A7000C5A1DDE7C9A1DBE7CDA1D9E7D1A1D7E7A2
:102A8000D5A1D5E7D9A1D3E7DDA1D1E7E3A1CFE770
:102A9000E8A1CDE7EDA1CBE7F2A1C9E7BDE8F041A0
:102AA000FFF7FCBB0146F4A0F8E70000E7180404B8
:102AB000740000207788E0E020E0FFFF38C8FFFFC7
:102AC00008F8FFFF30D0FFFF49525F4B45595F5474
:102AD000565F4D454D5F44454C00000049525F4BE9
:102AE00045595F54565F4348414E4E454C5F5550E3
:102AF0000000000028D8FFFF49525F4B45595F5442
:102B0000565F54565F564944454F00002FD0E0E0D1
:102B100049525F4B45595F54565F4E554D5F3200E9
:102B200049525F4B45595F54565F534C4545505F82
:102B300052455345525600000FF0E0E009F7FBFB09
:102B400049525F4B45595F564944454F5F43485F83
:102B5000444F574E00000000E81773049070720451
:102B600049525F4B45595F564944454F5F564F4C5C
:102B70005F55500049525F4B45595F4449525F4C85
:102B80004546540025730A00DE21473842BDB9C7C7
:102B900049525F4B45595F54565F504F574552005D
:102BA00049525F4B45595F4449525F555000000000
:102BB00049525F4B45595F4449525F444F574E005D
:102BC00049525F4B45595F4449525F524947485407
:102BD0000000000049525F4B45595F5245475F5422
:102BE0004553545F4E554D31000000005B4B455935
:102BF0005F4E554D315D7465737420726567207347
:102C0000770A0D00CEFAADDE49525F4B45595F524F
:102C100045475F544553545F4E554D320000000008
:102C20005B4B45595F4E554D325D74657374207230
:102C300065672063770A0D00FECAEDCE49525F4BEF
:102C400045595F4449525F43454E54455200000088
:102C500054475F4E4156490054475F4D454E55001D
:102C600049525F4B45595F54565F4E554D5F310099
:102C700049525F4B45595F54565F4E554D5F330087
:102C800049525F4B45595F54565F4E554D5F340076
:102C900049525F4B45595F54565F4E554D5F350065
:102CA00049525F4B45595F54565F4E554D5F360054
:102CB00049525F4B45595F54565F4E554D5F370043
:102CC00049525F4B45595F54565F4E554D5F380032
:102CD00049525F4B45595F54565F4E554D5F390021
:102CE00049525F4B45595F54565F4E554D5F30001A
:102CF00049525F4B45595F54565F434F4E464947D3
:102D00005F4D454D4F52590049525F4B45595F54F5
:102D1000565F4155544F5F4348414E4E454C00006D
:102D200049525F4B45595F54565F564F4C5F504C6C
:102D30005553000049525F4B45595F54565F564FFB
:102D40004C5F4D494E55530049525F4B45595F54B6
:102D5000565F4348414E4E454C5F444F574E00002E
:102D600049525F4B45595F54565F53454C45435458
:102D70005F4C49535400000049525F4B45595F5422
:102D8000565F4D555445000049525F4B45595F54BD
:102D9000565F434F4E54524F4C00000049525F4B18
:102DA00045595F54565F54565F4341424C450000BD
:102DB00049525F4B45595F564944454F5F504F5705
:102DC0004552000049525F4B45595F564944454FB3
:102DD0005F54565F5643520049525F4B45595F5608
:102DE0004944454F5F524557494E440049525F4B55
:102DF00045595F564944454F5F504C4159000000CA
:102E000049525F4B45595F564944454F5F464153D0
:102E100054464F52574152440000000049525F4B04
:102E200045595F564944454F5F564F4C5F444F5795
:102E30004E00000049525F4B45595F564944454F8B
:102E40005F5245435F53544F5000000049525F4B5F
:102E500045595F564944454F5F5245435F50415580
:102E60005345000049525F4B45595F564944454F11
:102E70005F43485F5550000076616C7565203D20CA
:102E80003078253038780A0D0000000002780B7881
:102E900003700A707047000010B5FEF7DDFFFFF702
:102EA00033F8FEF7A5FEFEF7A7FFFEF729FFFEF7B2
:102EB00075FFFEF769FEFEF78DFE0C4C0122202106
:102EC0002046FDF771FDC820FDF754FC0022A11536
:102ED0002046FDF769FDC820FDF74CFC2046012285
:102EE000BDE810405102FDF75FBD0000000C01403D
:102EF0002DE9F05F92460C4606466FF0090860E047
:102F0000252801D0B0475CE0002514F8010BA94644
:102F10004F46BB46252802D1B04714F8010B302894
:102F20000CD114F8010B012708E000BF05EB850167
:102F300000EB4100054414F8010B303DA0F13001D5
:102F40000929F3D907B16D42732804D063280AD048
:102F500075280BD00EE05AF8045B01E06D1CB047F9
:102F6000287870B3FAE71AF8040BCBE714F8010BD2
:102F70004FF00A0B6C2807D14FF00109BBF1000F8D
:102F800000D1C34614F8010B752820D0642820D046
:102F900069281ED0582821D078281FD062281FD039
:102FA000641EBBF1000F0CD0B9F1000F02D0B9F1D3
:102FB000000F06D05AF8040B33462A465946FFF74D
:102FC00061FB14F8010B00289AD1BDE8F09F0A209C
:102FD00007E0BBF1000FE7D1C346E5E7102000E0B2
:102FE00002208346E0E700404040404040404040EF
:102FF00041414141414040404040404040404040CC
:1030000040404040404040050202020202020202EB
:103010000202020202020220202020202020202082
:1030200020020202020202029090909090901010F2
:103030001010101010101010101010101010101090
:103040001010020202020202888888888888080814
:1030500008080808080808080808080808080808F0
:103060000808020202024000E72F00083D3D3D3DF6
:103070003D3D3D3D3D3D3D3D3D3D3D3D3D3D3D3D80
:103080003D3D3D3D3D3D3D3D3D3D3D3D3D3D3D3D70
:103090003D3D3D3D3D3D3D3D3D3D3D3D3D3D3D3D60
:1030A0003D3D3D3D3D3D3D3D3D3D3D3D3D3D3D3D50
:1030B0003D3D3D3D3D3D3D3D3D3D3D3D3D3D3D3D40
:1030C0003D3D3D3D3D3D3D3D3D3D0D0A0000000087
:1030D000227265672273702263772273705B61646A
:1030E00064725D73705B6461746120315D73705BE9
:1030F0006461746120325D73705B6461746120335C
:103100005D73705B6461746120345D73705B6461D6
:103110007461202E2E2E5D73705B64617461204E8D
:103120005D5C6E0D0A0000004831000800000020C0
:10313000A400000064250008EC310008A400002071
:103140004C0A000074250008000000000000020482
:103150000608000000000102030401020304060740
:103160000809000000A24A0400000000000000005E
:103170000102030406070809000000000000000027
:10318000000000000000000000000000000000003F
:10319000000000000000000000000000000000002F
:1031A000000000000000000000000000000000001F
:1031B000000000000000000000000000000000000F
:1031C00000000000000000000000000000000000FF
:1031D00000000000000000000000000000000000EF
:0C31E000000000000000000000000000E3
:04000005080000ED02
:00000001FF
